{
  "contractName": "CryptoToken",
  "abi": [
    {
      "inputs": [
        {
          "internalType": "uint256",
          "name": "_initialSupply",
          "type": "uint256"
        }
      ],
      "stateMutability": "nonpayable",
      "type": "constructor"
    },
    {
      "inputs": [
        {
          "internalType": "address",
          "name": "",
          "type": "address"
        }
      ],
      "name": "balanceOf",
      "outputs": [
        {
          "internalType": "uint256",
          "name": "",
          "type": "uint256"
        }
      ],
      "stateMutability": "view",
      "type": "function",
      "constant": true
    },
    {
      "inputs": [],
      "name": "name",
      "outputs": [
        {
          "internalType": "string",
          "name": "",
          "type": "string"
        }
      ],
      "stateMutability": "view",
      "type": "function",
      "constant": true
    },
    {
      "inputs": [],
      "name": "owner",
      "outputs": [
        {
          "internalType": "address",
          "name": "",
          "type": "address"
        }
      ],
      "stateMutability": "view",
      "type": "function",
      "constant": true
    },
    {
      "inputs": [],
      "name": "symbol",
      "outputs": [
        {
          "internalType": "string",
          "name": "",
          "type": "string"
        }
      ],
      "stateMutability": "view",
      "type": "function",
      "constant": true
    },
    {
      "inputs": [],
      "name": "totalSupply",
      "outputs": [
        {
          "internalType": "uint256",
          "name": "",
          "type": "uint256"
        }
      ],
      "stateMutability": "view",
      "type": "function",
      "constant": true
    }
  ],
  "bytecode": "0x608060405234801561001057600080fd5b5060405161060138038061060183398181016040528101906100329190610121565b33600360006101000a81548173ffffffffffffffffffffffffffffffffffffffff021916908373ffffffffffffffffffffffffffffffffffffffff1602179055508060046000600360009054906101000a900473ffffffffffffffffffffffffffffffffffffffff1673ffffffffffffffffffffffffffffffffffffffff1673ffffffffffffffffffffffffffffffffffffffff16815260200190815260200160002081905550806002819055505061014e565b600080fd5b6000819050919050565b6100fe816100eb565b811461010957600080fd5b50565b60008151905061011b816100f5565b92915050565b600060208284031215610137576101366100e6565b5b60006101458482850161010c565b91505092915050565b6104a48061015d6000396000f3fe608060405234801561001057600080fd5b50600436106100575760003560e01c806306fdde031461005c57806318160ddd1461007a57806370a08231146100985780638da5cb5b146100c857806395d89b41146100e6575b600080fd5b610064610104565b60405161007191906102fd565b60405180910390f35b610082610192565b60405161008f9190610338565b60405180910390f35b6100b260048036038101906100ad91906103b6565b610198565b6040516100bf9190610338565b60405180910390f35b6100d06101b0565b6040516100dd91906103f2565b60405180910390f35b6100ee6101d6565b6040516100fb91906102fd565b60405180910390f35b600080546101119061043c565b80601f016020809104026020016040519081016040528092919081815260200182805461013d9061043c565b801561018a5780601f1061015f5761010080835404028352916020019161018a565b820191906000526020600020905b81548152906001019060200180831161016d57829003601f168201915b505050505081565b60025481565b60046020528060005260406000206000915090505481565b600360009054906101000a900473ffffffffffffffffffffffffffffffffffffffff1681565b600180546101e39061043c565b80601f016020809104026020016040519081016040528092919081815260200182805461020f9061043c565b801561025c5780601f106102315761010080835404028352916020019161025c565b820191906000526020600020905b81548152906001019060200180831161023f57829003601f168201915b505050505081565b600081519050919050565b600082825260208201905092915050565b60005b8381101561029e578082015181840152602081019050610283565b838111156102ad576000848401525b50505050565b6000601f19601f8301169050919050565b60006102cf82610264565b6102d9818561026f565b93506102e9818560208601610280565b6102f2816102b3565b840191505092915050565b6000602082019050818103600083015261031781846102c4565b905092915050565b6000819050919050565b6103328161031f565b82525050565b600060208201905061034d6000830184610329565b92915050565b600080fd5b600073ffffffffffffffffffffffffffffffffffffffff82169050919050565b600061038382610358565b9050919050565b61039381610378565b811461039e57600080fd5b50565b6000813590506103b08161038a565b92915050565b6000602082840312156103cc576103cb610353565b5b60006103da848285016103a1565b91505092915050565b6103ec81610378565b82525050565b600060208201905061040760008301846103e3565b92915050565b7f4e487b7100000000000000000000000000000000000000000000000000000000600052602260045260246000fd5b6000600282049050600182168061045457607f821691505b602082108114156104685761046761040d565b5b5091905056fea26469706673582212204536e6633d68339874ba50ebc64def40f40ddcaabb3b57711cbbc4e5e532705c64736f6c634300080c0033",
  "immutableReferences": {},
  "source": "// SPDX-License-Identifier: MIT\r\npragma solidity ^0.8.0;\r\n\r\ncontract CryptoToken {\r\n\tstring public name;\r\n\tstring public symbol;\r\n\tuint public totalSupply;\r\n\taddress public owner;\r\n\r\n\tmapping (address => uint) public balanceOf;\r\n\t\r\n\tconstructor (uint _initialSupply) {\r\n\t\towner = msg.sender;\r\n\t\tbalanceOf[owner] = _initialSupply;\r\n\t\ttotalSupply = _initialSupply;\r\n\t}\r\n}",
  "sourcePath": "D:\\Blockchain Projects\\token_sale\\contracts\\CryptoToken.sol",
  "compiler": {
    "name": "solc",
    "version": "0.8.12+commit.f00d7308.Emscripten.clang"
  },
  "schemaVersion": "3.4.5",
  "updatedAt": "2022-03-14T09:35:39.621Z",
  "networkType": "ethereum",
  "devdoc": {
    "kind": "dev",
    "methods": {},
    "version": 1
  },
  "userdoc": {
    "kind": "user",
    "methods": {},
    "version": 1
  }
}